{
  "address": "0x2CFf4FF05996365fCc1b9437948639Bbd3CCB5fa",
  "abi": [
    {
      "inputs": [
        {
          "internalType": "address",
          "name": "_priceOracle",
          "type": "address"
        },
        {
          "internalType": "bytes32",
          "name": "_priceUpdateTopic",
          "type": "bytes32"
        },
        {
          "internalType": "address",
          "name": "_precompileAddress",
          "type": "address"
        }
      ],
      "stateMutability": "nonpayable",
      "type": "constructor"
    },
    {
      "inputs": [],
      "name": "EnforcedPause",
      "type": "error"
    },
    {
      "inputs": [],
      "name": "ExpectedPause",
      "type": "error"
    },
    {
      "inputs": [
        {
          "internalType": "address",
          "name": "owner",
          "type": "address"
        }
      ],
      "name": "OwnableInvalidOwner",
      "type": "error"
    },
    {
      "inputs": [
        {
          "internalType": "address",
          "name": "account",
          "type": "address"
        }
      ],
      "name": "OwnableUnauthorizedAccount",
      "type": "error"
    },
    {
      "inputs": [],
      "name": "ReentrancyGuardReentrantCall",
      "type": "error"
    },
    {
      "inputs": [
        {
          "internalType": "address",
          "name": "caller",
          "type": "address"
        }
      ],
      "name": "UnauthorizedCaller",
      "type": "error"
    },
    {
      "anonymous": false,
      "inputs": [
        {
          "indexed": true,
          "internalType": "address",
          "name": "user",
          "type": "address"
        },
        {
          "indexed": false,
          "internalType": "uint256",
          "name": "collateralReturned",
          "type": "uint256"
        }
      ],
      "name": "EmergencyExit",
      "type": "event"
    },
    {
      "anonymous": false,
      "inputs": [
        {
          "indexed": true,
          "internalType": "address",
          "name": "previousOwner",
          "type": "address"
        },
        {
          "indexed": true,
          "internalType": "address",
          "name": "newOwner",
          "type": "address"
        }
      ],
      "name": "OwnershipTransferred",
      "type": "event"
    },
    {
      "anonymous": false,
      "inputs": [
        {
          "indexed": false,
          "internalType": "address",
          "name": "account",
          "type": "address"
        }
      ],
      "name": "Paused",
      "type": "event"
    },
    {
      "anonymous": false,
      "inputs": [
        {
          "indexed": true,
          "internalType": "address",
          "name": "user",
          "type": "address"
        },
        {
          "indexed": false,
          "internalType": "uint256",
          "name": "ratio",
          "type": "uint256"
        }
      ],
      "name": "PositionAtRisk",
      "type": "event"
    },
    {
      "anonymous": false,
      "inputs": [
        {
          "indexed": true,
          "internalType": "address",
          "name": "user",
          "type": "address"
        },
        {
          "indexed": false,
          "internalType": "uint256",
          "name": "returned",
          "type": "uint256"
        }
      ],
      "name": "PositionClosed",
      "type": "event"
    },
    {
      "anonymous": false,
      "inputs": [
        {
          "indexed": true,
          "internalType": "address",
          "name": "user",
          "type": "address"
        },
        {
          "indexed": false,
          "internalType": "uint256",
          "name": "collateral",
          "type": "uint256"
        },
        {
          "indexed": false,
          "internalType": "uint256",
          "name": "debt",
          "type": "uint256"
        },
        {
          "indexed": false,
          "internalType": "uint256",
          "name": "subscriptionId",
          "type": "uint256"
        }
      ],
      "name": "PositionOpened",
      "type": "event"
    },
    {
      "anonymous": false,
      "inputs": [
        {
          "indexed": true,
          "internalType": "address",
          "name": "user",
          "type": "address"
        },
        {
          "indexed": false,
          "internalType": "uint256",
          "name": "ratio",
          "type": "uint256"
        },
        {
          "indexed": false,
          "internalType": "uint256",
          "name": "price",
          "type": "uint256"
        }
      ],
      "name": "ProtectionTriggered",
      "type": "event"
    },
    {
      "anonymous": false,
      "inputs": [
        {
          "indexed": true,
          "internalType": "address",
          "name": "user",
          "type": "address"
        },
        {
          "indexed": false,
          "internalType": "uint256",
          "name": "subscriptionId",
          "type": "uint256"
        },
        {
          "indexed": false,
          "internalType": "uint256",
          "name": "balance",
          "type": "uint256"
        }
      ],
      "name": "SubscriptionLow",
      "type": "event"
    },
    {
      "anonymous": false,
      "inputs": [
        {
          "indexed": false,
          "internalType": "address",
          "name": "account",
          "type": "address"
        }
      ],
      "name": "Unpaused",
      "type": "event"
    },
    {
      "inputs": [],
      "name": "MIN_COLLATERAL_RATIO",
      "outputs": [
        {
          "internalType": "uint256",
          "name": "",
          "type": "uint256"
        }
      ],
      "stateMutability": "view",
      "type": "function"
    },
    {
      "inputs": [],
      "name": "MIN_SUB_FUNDING",
      "outputs": [
        {
          "internalType": "uint256",
          "name": "",
          "type": "uint256"
        }
      ],
      "stateMutability": "view",
      "type": "function"
    },
    {
      "inputs": [],
      "name": "PRICE_PRECISION",
      "outputs": [
        {
          "internalType": "uint256",
          "name": "",
          "type": "uint256"
        }
      ],
      "stateMutability": "view",
      "type": "function"
    },
    {
      "inputs": [],
      "name": "PROTOCOL_FEE_BPS",
      "outputs": [
        {
          "internalType": "uint256",
          "name": "",
          "type": "uint256"
        }
      ],
      "stateMutability": "view",
      "type": "function"
    },
    {
      "inputs": [],
      "name": "closePosition",
      "outputs": [],
      "stateMutability": "nonpayable",
      "type": "function"
    },
    {
      "inputs": [
        {
          "internalType": "uint256",
          "name": "subscriptionId",
          "type": "uint256"
        },
        {
          "internalType": "address",
          "name": "emitter",
          "type": "address"
        },
        {
          "internalType": "bytes32[]",
          "name": "topics",
          "type": "bytes32[]"
        },
        {
          "internalType": "bytes",
          "name": "data",
          "type": "bytes"
        }
      ],
      "name": "handleEvent",
      "outputs": [],
      "stateMutability": "nonpayable",
      "type": "function"
    },
    {
      "inputs": [
        {
          "internalType": "uint256",
          "name": "debt",
          "type": "uint256"
        },
        {
          "internalType": "uint256",
          "name": "protectionRatio",
          "type": "uint256"
        }
      ],
      "name": "openPosition",
      "outputs": [],
      "stateMutability": "payable",
      "type": "function"
    },
    {
      "inputs": [],
      "name": "owner",
      "outputs": [
        {
          "internalType": "address",
          "name": "",
          "type": "address"
        }
      ],
      "stateMutability": "view",
      "type": "function"
    },
    {
      "inputs": [],
      "name": "pause",
      "outputs": [],
      "stateMutability": "nonpayable",
      "type": "function"
    },
    {
      "inputs": [],
      "name": "paused",
      "outputs": [
        {
          "internalType": "bool",
          "name": "",
          "type": "bool"
        }
      ],
      "stateMutability": "view",
      "type": "function"
    },
    {
      "inputs": [
        {
          "internalType": "address",
          "name": "",
          "type": "address"
        }
      ],
      "name": "positions",
      "outputs": [
        {
          "internalType": "uint256",
          "name": "collateral",
          "type": "uint256"
        },
        {
          "internalType": "uint256",
          "name": "debt",
          "type": "uint256"
        },
        {
          "internalType": "uint256",
          "name": "openedAt",
          "type": "uint256"
        },
        {
          "internalType": "bool",
          "name": "active",
          "type": "bool"
        },
        {
          "internalType": "uint256",
          "name": "subscriptionId",
          "type": "uint256"
        },
        {
          "internalType": "uint256",
          "name": "protectionRatio",
          "type": "uint256"
        }
      ],
      "stateMutability": "view",
      "type": "function"
    },
    {
      "inputs": [],
      "name": "priceOracle",
      "outputs": [
        {
          "internalType": "address",
          "name": "",
          "type": "address"
        }
      ],
      "stateMutability": "view",
      "type": "function"
    },
    {
      "inputs": [],
      "name": "priceUpdateTopic",
      "outputs": [
        {
          "internalType": "bytes32",
          "name": "",
          "type": "bytes32"
        }
      ],
      "stateMutability": "view",
      "type": "function"
    },
    {
      "inputs": [],
      "name": "renounceOwnership",
      "outputs": [],
      "stateMutability": "nonpayable",
      "type": "function"
    },
    {
      "inputs": [
        {
          "internalType": "address",
          "name": "_oracle",
          "type": "address"
        }
      ],
      "name": "setPriceOracle",
      "outputs": [],
      "stateMutability": "nonpayable",
      "type": "function"
    },
    {
      "inputs": [
        {
          "internalType": "bytes32",
          "name": "_topic",
          "type": "bytes32"
        }
      ],
      "name": "setPriceUpdateTopic",
      "outputs": [],
      "stateMutability": "nonpayable",
      "type": "function"
    },
    {
      "inputs": [
        {
          "internalType": "uint256",
          "name": "",
          "type": "uint256"
        }
      ],
      "name": "subIdToUser",
      "outputs": [
        {
          "internalType": "address",
          "name": "",
          "type": "address"
        }
      ],
      "stateMutability": "view",
      "type": "function"
    },
    {
      "inputs": [
        {
          "internalType": "uint256",
          "name": "",
          "type": "uint256"
        }
      ],
      "name": "subscriptionIds",
      "outputs": [
        {
          "internalType": "bool",
          "name": "",
          "type": "bool"
        }
      ],
      "stateMutability": "view",
      "type": "function"
    },
    {
      "inputs": [],
      "name": "topUpCollateral",
      "outputs": [],
      "stateMutability": "payable",
      "type": "function"
    },
    {
      "inputs": [],
      "name": "topUpSubscription",
      "outputs": [],
      "stateMutability": "payable",
      "type": "function"
    },
    {
      "inputs": [
        {
          "internalType": "address",
          "name": "newOwner",
          "type": "address"
        }
      ],
      "name": "transferOwnership",
      "outputs": [],
      "stateMutability": "nonpayable",
      "type": "function"
    },
    {
      "inputs": [],
      "name": "unpause",
      "outputs": [],
      "stateMutability": "nonpayable",
      "type": "function"
    }
  ],
  "transactionHash": "0x7f3334197a2493f49d0776d21724f9e20e2ab7c402bbbfbe8a885bd78b709971",
  "args": [
    "0x0A95c9540C8D5Cf0D573E7a8aDe32476e027dF28",
    "0xb556fac599c3c70efb9ab1fa725ecace6c81cc48d1455f886607def065f3e0c0",
    "0x0000000000000000000000000000000000000100"
  ],
  "numDeployments": 1,
  "solcInputHash": "d6be18dc8a046cf787d0c2c1b81e96ea",
  "bytecode": "0x60a06040523480156200001157600080fd5b506040516200163738038062001637833981016040819052620000349162000112565b6001600160a01b0381166080526001805533806200006c57604051631e4fbdf760e01b81526000600482015260240160405180910390fd5b6200007781620000a3565b5050600580546001600160a01b0319166001600160a01b03939093169290921790915560065562000153565b600280546001600160a01b038381166001600160a01b0319831681179093556040519116919082907f8be0079c531659141344cd1fd0a4f28419497f9722a3daafe3b4186f6b6457e090600090a35050565b80516001600160a01b03811681146200010d57600080fd5b919050565b6000806000606084860312156200012857600080fd5b6200013384620000f5565b9250602084015191506200014a60408501620000f5565b90509250925092565b6080516114a562000192600039600081816106290152818161088d0152818161090f01528181610a0001528181610eaf01526110b801526114a56000f3fe6080604052600436106101355760003560e01c80637a9fffb7116100ab5780638da5cb5b1161006f5780638da5cb5b146103a057806395082d25146103be578063ba78b742146103da578063be378228146103e2578063c393d0e3146103f7578063f2fde38b1461040c57600080fd5b80637a9fffb71461031e5780637aa51754146103335780638456cb591461033b5780638cafc358146103505780638d109fe61461038057600080fd5b8063530e784f116100fd578063530e784f1461020257806355f57510146102225780635c975abb146102a85780635d9a8e72146102d357806364e2f59d146102e9578063715018a61461030957600080fd5b806306215d451461013a5780631f5a3f0d1461016a5780632630c12f146101b85780633012b05c146101d85780633f4ba83a146101ed575b600080fd5b34801561014657600080fd5b506101576801bc16d674ec80000081565b6040519081526020015b60405180910390f35b34801561017657600080fd5b506101a06101853660046111cf565b6004602052600090815260409020546001600160a01b031681565b6040516001600160a01b039091168152602001610161565b3480156101c457600080fd5b506005546101a0906001600160a01b031681565b6101eb6101e63660046111e8565b61042c565b005b3480156101f957600080fd5b506101eb610797565b34801561020e57600080fd5b506101eb61021d36600461121f565b6107a9565b34801561022e57600080fd5b5061027961023d36600461121f565b600360208190526000918252604090912080546001820154600283015493830154600484015460059094015492949193919260ff909116919086565b6040805196875260208701959095529385019290925215156060840152608083015260a082015260c001610161565b3480156102b457600080fd5b50600254600160a01b900460ff165b6040519015158152602001610161565b3480156102df57600080fd5b5061015760065481565b3480156102f557600080fd5b506101eb6103043660046111cf565b6107d3565b34801561031557600080fd5b506101eb6107e0565b34801561032a57600080fd5b50610157607881565b6101eb6107f2565b34801561034757600080fd5b506101eb6109e5565b34801561035c57600080fd5b506102c361036b3660046111cf565b60006020819052908152604090205460ff1681565b34801561038c57600080fd5b506101eb61039b36600461128c565b6109f5565b3480156103ac57600080fd5b506002546001600160a01b03166101a0565b3480156103ca57600080fd5b50610157670de0b6b3a764000081565b6101eb610a56565b3480156103ee57600080fd5b50610157600a81565b34801561040357600080fd5b506101eb610af8565b34801561041857600080fd5b506101eb61042736600461121f565b610b51565b610434610b8f565b61043c610bb9565b336000908152600360208190526040909120015460ff16156104a55760405162461bcd60e51b815260206004820152601760248201527f506f736974696f6e20616c72656164792061637469766500000000000000000060448201526064015b60405180910390fd5b600082116104ed5760405162461bcd60e51b815260206004820152601560248201527444656274206d757374206265206e6f6e2d7a65726f60581b604482015260640161049c565b6078811180156104ff57506101f48111155b61055a5760405162461bcd60e51b815260206004820152602660248201527f70726f74656374696f6e526174696f206f7574206f662072616e6765205b3132604482015265312c3530305d60d01b606482015260840161049c565b6801bc16d674ec80000034116105c05760405162461bcd60e51b815260206004820152602560248201527f6d73672e76616c7565206d75737420657863656564204d494e5f5355425f46556044820152644e44494e4760d81b606482015260840161049c565b60006105d56801bc16d674ec8000003461135f565b600554600654604051637c988de160e11b81526001600160a01b039283166004820152602481019190915260006044820181905260648201819052306084830152600160a483015260c482018190529293507f00000000000000000000000000000000000000000000000000000000000000009091169063f9311bc2906801bc16d674ec8000009060e40160206040518083038185885af115801561067e573d6000803e3d6000fd5b50505050506040513d601f19601f820116820180604052508101906106a39190611378565b6040805160c081018252848152602080820188815242838501908152600160608086018281526080870189815260a088018d81523360008181526003808b528c82209b518c5598518b880155965160028b01559251968901805497151560ff1998891617905590516004808a0191909155905160059098019790975588845295855286832080546001600160a01b03191687179055828552918690208054909316179091558351878152918201899052928101849052929350917f4ca7a949faea3991220c7d0e8f0c046ff68acb12d1a6052bec5b2fd036c724fc910160405180910390a2505061079360018055565b5050565b61079f610be4565b6107a7610c11565b565b6107b1610be4565b600580546001600160a01b0319166001600160a01b0392909216919091179055565b6107db610be4565b600655565b6107e8610be4565b6107a76000610c66565b6107fa610b8f565b610802610bb9565b3360009081526003602081905260409091209081015460ff166108375760405162461bcd60e51b815260040161049c90611391565b600034116108745760405162461bcd60e51b815260206004820152600a6024820152695a65726f2076616c756560b01b604482015260640161049c565b60048181015460405163c106065360e01b8152918201527f00000000000000000000000000000000000000000000000000000000000000006001600160a01b03169063c10606539034906024016000604051808303818588803b1580156108da57600080fd5b505af11580156108ee573d6000803e3d6000fd5b5050505060048281015460405163dc311dd360e01b815291820152600091507f00000000000000000000000000000000000000000000000000000000000000006001600160a01b03169063dc311dd39060240160a060405180830381865afa15801561095e573d6000803e3d6000fd5b505050506040513d601f19601f8201168201806040525081019061098291906113bd565b9450505050506803782dace9d90000008110156109da576004820154604080519182526020820183905233917f618652208fd0f907245689cffff239eda76dc32475701f5fa6b8ff79932be078910160405180910390a25b50506107a760018055565b6109ed610be4565b6107a7610cb8565b336001600160a01b037f00000000000000000000000000000000000000000000000000000000000000001614610a405760405163d86ad9cf60e01b815233600482015260240161049c565b610a4e868686868686610cfb565b505050505050565b610a5e610b8f565b610a66610bb9565b3360009081526003602081905260409091209081015460ff16610a9b5760405162461bcd60e51b815260040161049c90611391565b60003411610ad85760405162461bcd60e51b815260206004820152600a6024820152695a65726f2076616c756560b01b604482015260640161049c565b34816000016000828254610aec9190611423565b90915550506001805550565b610b00610b8f565b610b08610bb9565b3360009081526003602081905260409091209081015460ff16610b3d5760405162461bcd60e51b815260040161049c90611391565b610b473382610e51565b506107a760018055565b610b59610be4565b6001600160a01b038116610b8357604051631e4fbdf760e01b81526000600482015260240161049c565b610b8c81610c66565b50565b600260015403610bb257604051633ee5aeb560e01b815260040160405180910390fd5b6002600155565b600254600160a01b900460ff16156107a75760405163d93c066560e01b815260040160405180910390fd5b6002546001600160a01b031633146107a75760405163118cdaa760e01b815233600482015260240161049c565b610c1961101d565b6002805460ff60a01b191690557f5db9ee0a495bf2e6ff9c91a7834c1ba4fdd244a5e8aa4e537bd38aeae4b073aa335b6040516001600160a01b03909116815260200160405180910390a1565b600280546001600160a01b038381166001600160a01b0319831681179093556040519116919082907f8be0079c531659141344cd1fd0a4f28419497f9722a3daafe3b4186f6b6457e090600090a35050565b610cc0610bb9565b6002805460ff60a01b1916600160a01b1790557f62e78cea01bee320cd4e420270b5ea74000d11b0c9f74754ebdbfc544b05a258610c493390565b6000868152600460205260409020546001600160a01b031680610d1e5750610a4e565b6001600160a01b03811660009081526003602081905260409091209081015460ff16610d4b575050610a4e565b6000610d59848601866111e8565b5090506000670de0b6b3a76400008360010154610d769190611436565b8354610d83908490611436565b610d8e906064611436565b610d98919061144d565b90508260050154811015610e455760408051828152602081018490526001600160a01b038616917f4e1d93c553ac218cc20894fa5c15f44f8d4fbaedf815bba3197c738be7533dcf910160405180910390a26078811015610e0157610dfc84611047565b610e45565b836001600160a01b03167f66561c134c03d4fcd00fcda606be67b5bbf5f45a0db56809e3ee58d5a67ffe8d82604051610e3c91815260200190565b60405180910390a25b50505050505050505050565b60048181015460038301805460ff1990811690915560008281526020848152604080832080546001600160a01b0319169055908290529081902080549092169091555163ad0b27fb60e01b8152918201819052906001600160a01b037f0000000000000000000000000000000000000000000000000000000000000000169063ad0b27fb90602401600060405180830381600087803b158015610ef357600080fd5b505af1925050508015610f04575060015b506000612710600a8460000154610f1b9190611436565b610f25919061144d565b90506000818460000154610f39919061135f565b6000808655604051919250906001600160a01b0387169083908381818185875af1925050503d8060008114610f8a576040519150601f19603f3d011682016040523d82523d6000602084013e610f8f565b606091505b5050905080610fd25760405162461bcd60e51b815260206004820152600f60248201526e151c985b9cd9995c8819985a5b1959608a1b604482015260640161049c565b856001600160a01b03167fa9e0cdf27a7965d21573ebb808fbcb2c2a1cfd656e1ecf3f82549437b47406778360405161100d91815260200190565b60405180910390a2505050505050565b600254600160a01b900460ff166107a757604051638dfc202b60e01b815260040160405180910390fd5b6001600160a01b0381811660009081526003602081815260408084206004808201548254958301805460ff1990811690915587845581885282865284882080546001600160a01b031916905594879052958390208054909416909355905163ad0b27fb60e01b8152918201849052937f0000000000000000000000000000000000000000000000000000000000000000169063ad0b27fb90602401600060405180830381600087803b1580156110fc57600080fd5b505af192505050801561110d575060015b508015611186576000846001600160a01b03168260405160006040518083038185875af1925050503d8060008114611161576040519150601f19603f3d011682016040523d82523d6000602084013e611166565b606091505b50509050806111845750825550600301805460ff1916600117905550565b505b836001600160a01b03167ff779df072f94d207563b1ba8c286814086f1e6bb436a2652e307dccc56ed79e8826040516111c191815260200190565b60405180910390a250505050565b6000602082840312156111e157600080fd5b5035919050565b600080604083850312156111fb57600080fd5b50508035926020909101359150565b6001600160a01b0381168114610b8c57600080fd5b60006020828403121561123157600080fd5b813561123c8161120a565b9392505050565b60008083601f84011261125557600080fd5b50813567ffffffffffffffff81111561126d57600080fd5b60208301915083602082850101111561128557600080fd5b9250929050565b600080600080600080608087890312156112a557600080fd5b8635955060208701356112b78161120a565b9450604087013567ffffffffffffffff808211156112d457600080fd5b818901915089601f8301126112e857600080fd5b8135818111156112f757600080fd5b8a60208260051b850101111561130c57600080fd5b60208301965080955050606089013591508082111561132a57600080fd5b5061133789828a01611243565b979a9699509497509295939492505050565b634e487b7160e01b600052601160045260246000fd5b8181038181111561137257611372611349565b92915050565b60006020828403121561138a57600080fd5b5051919050565b60208082526012908201527127379030b1ba34bb32903837b9b4ba34b7b760711b604082015260600190565b600080600080600060a086880312156113d557600080fd5b85516113e08161120a565b6020870151604088015191965094506113f88161120a565b6060870151909350801515811461140e57600080fd5b80925050608086015190509295509295909350565b8082018082111561137257611372611349565b808202811582820484141761137257611372611349565b60008261146a57634e487b7160e01b600052601260045260246000fd5b50049056fea26469706673582212204e0474ee1dc5d84525e1d3e91392196ae09281cb125aeb1d269f6e5e01b4d94264736f6c63430008180033",
  "devdoc": {
    "errors": {
      "EnforcedPause()": [
        {
          "details": "The operation failed because the contract is paused."
        }
      ],
      "ExpectedPause()": [
        {
          "details": "The operation failed because the contract is not paused."
        }
      ],
      "OwnableInvalidOwner(address)": [
        {
          "details": "The owner is not a valid owner account. (eg. `address(0)`)"
        }
      ],
      "OwnableUnauthorizedAccount(address)": [
        {
          "details": "The caller account is not authorized to perform an operation."
        }
      ],
      "ReentrancyGuardReentrantCall()": [
        {
          "details": "Unauthorized reentrant call."
        }
      ]
    },
    "events": {
      "Paused(address)": {
        "details": "Emitted when the pause is triggered by `account`."
      },
      "Unpaused(address)": {
        "details": "Emitted when the pause is lifted by `account`."
      }
    },
    "kind": "dev",
    "methods": {
      "openPosition(uint256,uint256)": {
        "params": {
          "debt": "The amount of debt being taken on (in wei).",
          "protectionRatio": "The collateral-ratio floor at which the vault                         should intervene, e.g. 150 = 150%."
        }
      },
      "owner()": {
        "details": "Returns the address of the current owner."
      },
      "paused()": {
        "details": "Returns true if the contract is paused, and false otherwise."
      },
      "renounceOwnership()": {
        "details": "Leaves the contract without owner. It will not be possible to call `onlyOwner` functions. Can only be called by the current owner. NOTE: Renouncing ownership will leave the contract without an owner, thereby disabling any functionality that is only available to the owner."
      },
      "transferOwnership(address)": {
        "details": "Transfers ownership of the contract to a new account (`newOwner`). Can only be called by the current owner."
      }
    },
    "version": 1
  },
  "userdoc": {
    "kind": "user",
    "methods": {
      "closePosition()": {
        "notice": "Close a position, cancel the Reactivity subscription, and         return collateral minus the protocol fee."
      },
      "openPosition(uint256,uint256)": {
        "notice": "Open a leveraged position and register a Reactivity subscription         that watches for price drops."
      },
      "setPriceOracle(address)": {
        "notice": "Update the oracle address that subscriptions filter on."
      },
      "topUpCollateral()": {
        "notice": "Add collateral to an existing position to improve its ratio."
      },
      "topUpSubscription()": {
        "notice": "Fund the Reactivity subscription so it stays active.         A low-balance warning fires when the remaining balance drops         below 2× the minimum — giving the user time to react before         protection goes dark."
      }
    },
    "version": 1
  },
  "storageLayout": {
    "storage": [
      {
        "astId": 1468,
        "contract": "contracts/REFLEXVault.sol:REFLEXVault",
        "label": "subscriptionIds",
        "offset": 0,
        "slot": "0",
        "type": "t_mapping(t_uint256,t_bool)"
      },
      {
        "astId": 296,
        "contract": "contracts/REFLEXVault.sol:REFLEXVault",
        "label": "_status",
        "offset": 0,
        "slot": "1",
        "type": "t_uint256"
      },
      {
        "astId": 8,
        "contract": "contracts/REFLEXVault.sol:REFLEXVault",
        "label": "_owner",
        "offset": 0,
        "slot": "2",
        "type": "t_address"
      },
      {
        "astId": 186,
        "contract": "contracts/REFLEXVault.sol:REFLEXVault",
        "label": "_paused",
        "offset": 20,
        "slot": "2",
        "type": "t_bool"
      },
      {
        "astId": 858,
        "contract": "contracts/REFLEXVault.sol:REFLEXVault",
        "label": "positions",
        "offset": 0,
        "slot": "3",
        "type": "t_mapping(t_address,t_struct(Position)853_storage)"
      },
      {
        "astId": 862,
        "contract": "contracts/REFLEXVault.sol:REFLEXVault",
        "label": "subIdToUser",
        "offset": 0,
        "slot": "4",
        "type": "t_mapping(t_uint256,t_address)"
      },
      {
        "astId": 864,
        "contract": "contracts/REFLEXVault.sol:REFLEXVault",
        "label": "priceOracle",
        "offset": 0,
        "slot": "5",
        "type": "t_address"
      },
      {
        "astId": 866,
        "contract": "contracts/REFLEXVault.sol:REFLEXVault",
        "label": "priceUpdateTopic",
        "offset": 0,
        "slot": "6",
        "type": "t_bytes32"
      }
    ],
    "types": {
      "t_address": {
        "encoding": "inplace",
        "label": "address",
        "numberOfBytes": "20"
      },
      "t_bool": {
        "encoding": "inplace",
        "label": "bool",
        "numberOfBytes": "1"
      },
      "t_bytes32": {
        "encoding": "inplace",
        "label": "bytes32",
        "numberOfBytes": "32"
      },
      "t_mapping(t_address,t_struct(Position)853_storage)": {
        "encoding": "mapping",
        "key": "t_address",
        "label": "mapping(address => struct REFLEXVault.Position)",
        "numberOfBytes": "32",
        "value": "t_struct(Position)853_storage"
      },
      "t_mapping(t_uint256,t_address)": {
        "encoding": "mapping",
        "key": "t_uint256",
        "label": "mapping(uint256 => address)",
        "numberOfBytes": "32",
        "value": "t_address"
      },
      "t_mapping(t_uint256,t_bool)": {
        "encoding": "mapping",
        "key": "t_uint256",
        "label": "mapping(uint256 => bool)",
        "numberOfBytes": "32",
        "value": "t_bool"
      },
      "t_struct(Position)853_storage": {
        "encoding": "inplace",
        "label": "struct REFLEXVault.Position",
        "members": [
          {
            "astId": 842,
            "contract": "contracts/REFLEXVault.sol:REFLEXVault",
            "label": "collateral",
            "offset": 0,
            "slot": "0",
            "type": "t_uint256"
          },
          {
            "astId": 844,
            "contract": "contracts/REFLEXVault.sol:REFLEXVault",
            "label": "debt",
            "offset": 0,
            "slot": "1",
            "type": "t_uint256"
          },
          {
            "astId": 846,
            "contract": "contracts/REFLEXVault.sol:REFLEXVault",
            "label": "openedAt",
            "offset": 0,
            "slot": "2",
            "type": "t_uint256"
          },
          {
            "astId": 848,
            "contract": "contracts/REFLEXVault.sol:REFLEXVault",
            "label": "active",
            "offset": 0,
            "slot": "3",
            "type": "t_bool"
          },
          {
            "astId": 850,
            "contract": "contracts/REFLEXVault.sol:REFLEXVault",
            "label": "subscriptionId",
            "offset": 0,
            "slot": "4",
            "type": "t_uint256"
          },
          {
            "astId": 852,
            "contract": "contracts/REFLEXVault.sol:REFLEXVault",
            "label": "protectionRatio",
            "offset": 0,
            "slot": "5",
            "type": "t_uint256"
          }
        ],
        "numberOfBytes": "192"
      },
      "t_uint256": {
        "encoding": "inplace",
        "label": "uint256",
        "numberOfBytes": "32"
      }
    }
  }
}