{
  "address": "0x3d6e960110127699Db15052b434De05fd3A7D2A2",
  "abi": [
    {
      "inputs": [
        {
          "internalType": "address",
          "name": "_priceOracle",
          "type": "address"
        },
        {
          "internalType": "bytes32",
          "name": "_priceUpdateTopic",
          "type": "bytes32"
        },
        {
          "internalType": "address",
          "name": "_precompileAddress",
          "type": "address"
        }
      ],
      "stateMutability": "nonpayable",
      "type": "constructor"
    },
    {
      "inputs": [],
      "name": "EnforcedPause",
      "type": "error"
    },
    {
      "inputs": [],
      "name": "ExpectedPause",
      "type": "error"
    },
    {
      "inputs": [
        {
          "internalType": "address",
          "name": "owner",
          "type": "address"
        }
      ],
      "name": "OwnableInvalidOwner",
      "type": "error"
    },
    {
      "inputs": [
        {
          "internalType": "address",
          "name": "account",
          "type": "address"
        }
      ],
      "name": "OwnableUnauthorizedAccount",
      "type": "error"
    },
    {
      "inputs": [],
      "name": "ReentrancyGuardReentrantCall",
      "type": "error"
    },
    {
      "inputs": [
        {
          "internalType": "address",
          "name": "caller",
          "type": "address"
        }
      ],
      "name": "UnauthorizedCaller",
      "type": "error"
    },
    {
      "anonymous": false,
      "inputs": [
        {
          "indexed": true,
          "internalType": "address",
          "name": "user",
          "type": "address"
        },
        {
          "indexed": false,
          "internalType": "uint256",
          "name": "collateralReturned",
          "type": "uint256"
        }
      ],
      "name": "EmergencyExit",
      "type": "event"
    },
    {
      "anonymous": false,
      "inputs": [
        {
          "indexed": true,
          "internalType": "address",
          "name": "previousOwner",
          "type": "address"
        },
        {
          "indexed": true,
          "internalType": "address",
          "name": "newOwner",
          "type": "address"
        }
      ],
      "name": "OwnershipTransferred",
      "type": "event"
    },
    {
      "anonymous": false,
      "inputs": [
        {
          "indexed": false,
          "internalType": "address",
          "name": "account",
          "type": "address"
        }
      ],
      "name": "Paused",
      "type": "event"
    },
    {
      "anonymous": false,
      "inputs": [
        {
          "indexed": true,
          "internalType": "address",
          "name": "user",
          "type": "address"
        },
        {
          "indexed": false,
          "internalType": "uint256",
          "name": "ratio",
          "type": "uint256"
        }
      ],
      "name": "PositionAtRisk",
      "type": "event"
    },
    {
      "anonymous": false,
      "inputs": [
        {
          "indexed": true,
          "internalType": "address",
          "name": "user",
          "type": "address"
        },
        {
          "indexed": false,
          "internalType": "uint256",
          "name": "returned",
          "type": "uint256"
        }
      ],
      "name": "PositionClosed",
      "type": "event"
    },
    {
      "anonymous": false,
      "inputs": [
        {
          "indexed": true,
          "internalType": "address",
          "name": "user",
          "type": "address"
        },
        {
          "indexed": false,
          "internalType": "uint256",
          "name": "collateral",
          "type": "uint256"
        },
        {
          "indexed": false,
          "internalType": "uint256",
          "name": "debt",
          "type": "uint256"
        },
        {
          "indexed": false,
          "internalType": "uint256",
          "name": "subscriptionId",
          "type": "uint256"
        }
      ],
      "name": "PositionOpened",
      "type": "event"
    },
    {
      "anonymous": false,
      "inputs": [
        {
          "indexed": true,
          "internalType": "address",
          "name": "user",
          "type": "address"
        },
        {
          "indexed": false,
          "internalType": "uint256",
          "name": "ratio",
          "type": "uint256"
        },
        {
          "indexed": false,
          "internalType": "uint256",
          "name": "price",
          "type": "uint256"
        }
      ],
      "name": "ProtectionTriggered",
      "type": "event"
    },
    {
      "anonymous": false,
      "inputs": [
        {
          "indexed": true,
          "internalType": "address",
          "name": "user",
          "type": "address"
        },
        {
          "indexed": false,
          "internalType": "uint256",
          "name": "subscriptionId",
          "type": "uint256"
        },
        {
          "indexed": false,
          "internalType": "uint256",
          "name": "balance",
          "type": "uint256"
        }
      ],
      "name": "SubscriptionLow",
      "type": "event"
    },
    {
      "anonymous": false,
      "inputs": [
        {
          "indexed": false,
          "internalType": "address",
          "name": "account",
          "type": "address"
        }
      ],
      "name": "Unpaused",
      "type": "event"
    },
    {
      "inputs": [],
      "name": "MIN_COLLATERAL_RATIO",
      "outputs": [
        {
          "internalType": "uint256",
          "name": "",
          "type": "uint256"
        }
      ],
      "stateMutability": "view",
      "type": "function"
    },
    {
      "inputs": [],
      "name": "MIN_SUB_FUNDING",
      "outputs": [
        {
          "internalType": "uint256",
          "name": "",
          "type": "uint256"
        }
      ],
      "stateMutability": "view",
      "type": "function"
    },
    {
      "inputs": [],
      "name": "PRICE_PRECISION",
      "outputs": [
        {
          "internalType": "uint256",
          "name": "",
          "type": "uint256"
        }
      ],
      "stateMutability": "view",
      "type": "function"
    },
    {
      "inputs": [],
      "name": "PROTOCOL_FEE_BPS",
      "outputs": [
        {
          "internalType": "uint256",
          "name": "",
          "type": "uint256"
        }
      ],
      "stateMutability": "view",
      "type": "function"
    },
    {
      "inputs": [],
      "name": "closePosition",
      "outputs": [],
      "stateMutability": "nonpayable",
      "type": "function"
    },
    {
      "inputs": [
        {
          "internalType": "uint256",
          "name": "subscriptionId",
          "type": "uint256"
        },
        {
          "internalType": "address",
          "name": "emitter",
          "type": "address"
        },
        {
          "internalType": "bytes32[]",
          "name": "topics",
          "type": "bytes32[]"
        },
        {
          "internalType": "bytes",
          "name": "data",
          "type": "bytes"
        }
      ],
      "name": "handleEvent",
      "outputs": [],
      "stateMutability": "nonpayable",
      "type": "function"
    },
    {
      "inputs": [
        {
          "internalType": "uint256",
          "name": "debt",
          "type": "uint256"
        },
        {
          "internalType": "uint256",
          "name": "protectionRatio",
          "type": "uint256"
        }
      ],
      "name": "openPosition",
      "outputs": [],
      "stateMutability": "payable",
      "type": "function"
    },
    {
      "inputs": [],
      "name": "owner",
      "outputs": [
        {
          "internalType": "address",
          "name": "",
          "type": "address"
        }
      ],
      "stateMutability": "view",
      "type": "function"
    },
    {
      "inputs": [],
      "name": "pause",
      "outputs": [],
      "stateMutability": "nonpayable",
      "type": "function"
    },
    {
      "inputs": [],
      "name": "paused",
      "outputs": [
        {
          "internalType": "bool",
          "name": "",
          "type": "bool"
        }
      ],
      "stateMutability": "view",
      "type": "function"
    },
    {
      "inputs": [
        {
          "internalType": "address",
          "name": "",
          "type": "address"
        }
      ],
      "name": "positions",
      "outputs": [
        {
          "internalType": "uint256",
          "name": "collateral",
          "type": "uint256"
        },
        {
          "internalType": "uint256",
          "name": "debt",
          "type": "uint256"
        },
        {
          "internalType": "uint256",
          "name": "openedAt",
          "type": "uint256"
        },
        {
          "internalType": "bool",
          "name": "active",
          "type": "bool"
        },
        {
          "internalType": "uint256",
          "name": "subscriptionId",
          "type": "uint256"
        },
        {
          "internalType": "uint256",
          "name": "protectionRatio",
          "type": "uint256"
        }
      ],
      "stateMutability": "view",
      "type": "function"
    },
    {
      "inputs": [],
      "name": "priceOracle",
      "outputs": [
        {
          "internalType": "address",
          "name": "",
          "type": "address"
        }
      ],
      "stateMutability": "view",
      "type": "function"
    },
    {
      "inputs": [],
      "name": "priceUpdateTopic",
      "outputs": [
        {
          "internalType": "bytes32",
          "name": "",
          "type": "bytes32"
        }
      ],
      "stateMutability": "view",
      "type": "function"
    },
    {
      "inputs": [],
      "name": "renounceOwnership",
      "outputs": [],
      "stateMutability": "nonpayable",
      "type": "function"
    },
    {
      "inputs": [
        {
          "internalType": "address",
          "name": "_oracle",
          "type": "address"
        }
      ],
      "name": "setPriceOracle",
      "outputs": [],
      "stateMutability": "nonpayable",
      "type": "function"
    },
    {
      "inputs": [
        {
          "internalType": "bytes32",
          "name": "_topic",
          "type": "bytes32"
        }
      ],
      "name": "setPriceUpdateTopic",
      "outputs": [],
      "stateMutability": "nonpayable",
      "type": "function"
    },
    {
      "inputs": [
        {
          "internalType": "uint256",
          "name": "",
          "type": "uint256"
        }
      ],
      "name": "subIdToUser",
      "outputs": [
        {
          "internalType": "address",
          "name": "",
          "type": "address"
        }
      ],
      "stateMutability": "view",
      "type": "function"
    },
    {
      "inputs": [
        {
          "internalType": "uint256",
          "name": "",
          "type": "uint256"
        }
      ],
      "name": "subscriptionIds",
      "outputs": [
        {
          "internalType": "bool",
          "name": "",
          "type": "bool"
        }
      ],
      "stateMutability": "view",
      "type": "function"
    },
    {
      "inputs": [],
      "name": "topUpCollateral",
      "outputs": [],
      "stateMutability": "payable",
      "type": "function"
    },
    {
      "inputs": [],
      "name": "topUpSubscription",
      "outputs": [],
      "stateMutability": "payable",
      "type": "function"
    },
    {
      "inputs": [
        {
          "internalType": "address",
          "name": "newOwner",
          "type": "address"
        }
      ],
      "name": "transferOwnership",
      "outputs": [],
      "stateMutability": "nonpayable",
      "type": "function"
    },
    {
      "inputs": [],
      "name": "unpause",
      "outputs": [],
      "stateMutability": "nonpayable",
      "type": "function"
    }
  ],
  "transactionHash": "0x43936199ad8383f88173d62270526396afa4177bcc01ff4ac6adb24afc0db798",
  "args": [
    "0xE85e5ac4F5Ac9987E28304d8f427f1ca6746a3E0",
    "0xb556fac599c3c70efb9ab1fa725ecace6c81cc48d1455f886607def065f3e0c0",
    "0x0000000000000000000000000000000000000100"
  ],
  "numDeployments": 2,
  "solcInputHash": "a16f794b63e33330cbe5e2e52184b17a",
  "bytecode": "0x60a06040523480156200001157600080fd5b506040516200163238038062001632833981016040819052620000349162000112565b6001600160a01b0381166080526001805533806200006c57604051631e4fbdf760e01b81526000600482015260240160405180910390fd5b6200007781620000a3565b5050600580546001600160a01b0319166001600160a01b03939093169290921790915560065562000153565b600280546001600160a01b038381166001600160a01b0319831681179093556040519116919082907f8be0079c531659141344cd1fd0a4f28419497f9722a3daafe3b4186f6b6457e090600090a35050565b80516001600160a01b03811681146200010d57600080fd5b919050565b6000806000606084860312156200012857600080fd5b6200013384620000f5565b9250602084015191506200014a60408501620000f5565b90509250925092565b6080516114a06200019260003960008181610626015281816108890152818161090b015281816109fb01528181610eaa01526110b301526114a06000f3fe6080604052600436106101355760003560e01c80637a9fffb7116100ab5780638da5cb5b1161006f5780638da5cb5b1461039f57806395082d25146103bd578063ba78b742146103d9578063be378228146103e1578063c393d0e3146103f6578063f2fde38b1461040b57600080fd5b80637a9fffb71461031d5780637aa51754146103325780638456cb591461033a5780638cafc3581461034f5780638d109fe61461037f57600080fd5b8063530e784f116100fd578063530e784f1461020157806355f57510146102215780635c975abb146102a75780635d9a8e72146102d257806364e2f59d146102e8578063715018a61461030857600080fd5b806306215d451461013a5780631f5a3f0d146101695780632630c12f146101b75780633012b05c146101d75780633f4ba83a146101ec575b600080fd5b34801561014657600080fd5b50610156671bc16d674ec8000081565b6040519081526020015b60405180910390f35b34801561017557600080fd5b5061019f6101843660046111ca565b6004602052600090815260409020546001600160a01b031681565b6040516001600160a01b039091168152602001610160565b3480156101c357600080fd5b5060055461019f906001600160a01b031681565b6101ea6101e53660046111e3565b61042b565b005b3480156101f857600080fd5b506101ea610793565b34801561020d57600080fd5b506101ea61021c36600461121a565b6107a5565b34801561022d57600080fd5b5061027861023c36600461121a565b600360208190526000918252604090912080546001820154600283015493830154600484015460059094015492949193919260ff909116919086565b6040805196875260208701959095529385019290925215156060840152608083015260a082015260c001610160565b3480156102b357600080fd5b50600254600160a01b900460ff165b6040519015158152602001610160565b3480156102de57600080fd5b5061015660065481565b3480156102f457600080fd5b506101ea6103033660046111ca565b6107cf565b34801561031457600080fd5b506101ea6107dc565b34801561032957600080fd5b50610156607881565b6101ea6107ee565b34801561034657600080fd5b506101ea6109e0565b34801561035b57600080fd5b506102c261036a3660046111ca565b60006020819052908152604090205460ff1681565b34801561038b57600080fd5b506101ea61039a366004611287565b6109f0565b3480156103ab57600080fd5b506002546001600160a01b031661019f565b3480156103c957600080fd5b50610156670de0b6b3a764000081565b6101ea610a51565b3480156103ed57600080fd5b50610156600a81565b34801561040257600080fd5b506101ea610af3565b34801561041757600080fd5b506101ea61042636600461121a565b610b4c565b610433610b8a565b61043b610bb4565b336000908152600360208190526040909120015460ff16156104a45760405162461bcd60e51b815260206004820152601760248201527f506f736974696f6e20616c72656164792061637469766500000000000000000060448201526064015b60405180910390fd5b600082116104ec5760405162461bcd60e51b815260206004820152601560248201527444656274206d757374206265206e6f6e2d7a65726f60581b604482015260640161049b565b6078811180156104fe57506101f48111155b6105595760405162461bcd60e51b815260206004820152602660248201527f70726f74656374696f6e526174696f206f7574206f662072616e6765205b3132604482015265312c3530305d60d01b606482015260840161049b565b671bc16d674ec8000034116105be5760405162461bcd60e51b815260206004820152602560248201527f6d73672e76616c7565206d75737420657863656564204d494e5f5355425f46556044820152644e44494e4760d81b606482015260840161049b565b60006105d2671bc16d674ec800003461135a565b600554600654604051637c988de160e11b81526001600160a01b039283166004820152602481019190915260006044820181905260648201819052306084830152600160a483015260c482018190529293507f00000000000000000000000000000000000000000000000000000000000000009091169063f9311bc290671bc16d674ec800009060e40160206040518083038185885af115801561067a573d6000803e3d6000fd5b50505050506040513d601f19601f8201168201806040525081019061069f9190611373565b6040805160c081018252848152602080820188815242838501908152600160608086018281526080870189815260a088018d81523360008181526003808b528c82209b518c5598518b880155965160028b01559251968901805497151560ff1998891617905590516004808a0191909155905160059098019790975588845295855286832080546001600160a01b03191687179055828552918690208054909316179091558351878152918201899052928101849052929350917f4ca7a949faea3991220c7d0e8f0c046ff68acb12d1a6052bec5b2fd036c724fc910160405180910390a2505061078f60018055565b5050565b61079b610bdf565b6107a3610c0c565b565b6107ad610bdf565b600580546001600160a01b0319166001600160a01b0392909216919091179055565b6107d7610bdf565b600655565b6107e4610bdf565b6107a36000610c61565b6107f6610b8a565b6107fe610bb4565b3360009081526003602081905260409091209081015460ff166108335760405162461bcd60e51b815260040161049b9061138c565b600034116108705760405162461bcd60e51b815260206004820152600a6024820152695a65726f2076616c756560b01b604482015260640161049b565b60048181015460405163c106065360e01b8152918201527f00000000000000000000000000000000000000000000000000000000000000006001600160a01b03169063c10606539034906024016000604051808303818588803b1580156108d657600080fd5b505af11580156108ea573d6000803e3d6000fd5b5050505060048281015460405163dc311dd360e01b815291820152600091507f00000000000000000000000000000000000000000000000000000000000000006001600160a01b03169063dc311dd39060240160a060405180830381865afa15801561095a573d6000803e3d6000fd5b505050506040513d601f19601f8201168201806040525081019061097e91906113b8565b945050505050673782dace9d9000008110156109d5576004820154604080519182526020820183905233917f618652208fd0f907245689cffff239eda76dc32475701f5fa6b8ff79932be078910160405180910390a25b50506107a360018055565b6109e8610bdf565b6107a3610cb3565b336001600160a01b037f00000000000000000000000000000000000000000000000000000000000000001614610a3b5760405163d86ad9cf60e01b815233600482015260240161049b565b610a49868686868686610cf6565b505050505050565b610a59610b8a565b610a61610bb4565b3360009081526003602081905260409091209081015460ff16610a965760405162461bcd60e51b815260040161049b9061138c565b60003411610ad35760405162461bcd60e51b815260206004820152600a6024820152695a65726f2076616c756560b01b604482015260640161049b565b34816000016000828254610ae7919061141e565b90915550506001805550565b610afb610b8a565b610b03610bb4565b3360009081526003602081905260409091209081015460ff16610b385760405162461bcd60e51b815260040161049b9061138c565b610b423382610e4c565b506107a360018055565b610b54610bdf565b6001600160a01b038116610b7e57604051631e4fbdf760e01b81526000600482015260240161049b565b610b8781610c61565b50565b600260015403610bad57604051633ee5aeb560e01b815260040160405180910390fd5b6002600155565b600254600160a01b900460ff16156107a35760405163d93c066560e01b815260040160405180910390fd5b6002546001600160a01b031633146107a35760405163118cdaa760e01b815233600482015260240161049b565b610c14611018565b6002805460ff60a01b191690557f5db9ee0a495bf2e6ff9c91a7834c1ba4fdd244a5e8aa4e537bd38aeae4b073aa335b6040516001600160a01b03909116815260200160405180910390a1565b600280546001600160a01b038381166001600160a01b0319831681179093556040519116919082907f8be0079c531659141344cd1fd0a4f28419497f9722a3daafe3b4186f6b6457e090600090a35050565b610cbb610bb4565b6002805460ff60a01b1916600160a01b1790557f62e78cea01bee320cd4e420270b5ea74000d11b0c9f74754ebdbfc544b05a258610c443390565b6000868152600460205260409020546001600160a01b031680610d195750610a49565b6001600160a01b03811660009081526003602081905260409091209081015460ff16610d46575050610a49565b6000610d54848601866111e3565b5090506000670de0b6b3a76400008360010154610d719190611431565b8354610d7e908490611431565b610d89906064611431565b610d939190611448565b90508260050154811015610e405760408051828152602081018490526001600160a01b038616917f4e1d93c553ac218cc20894fa5c15f44f8d4fbaedf815bba3197c738be7533dcf910160405180910390a26078811015610dfc57610df784611042565b610e40565b836001600160a01b03167f66561c134c03d4fcd00fcda606be67b5bbf5f45a0db56809e3ee58d5a67ffe8d82604051610e3791815260200190565b60405180910390a25b50505050505050505050565b60048181015460038301805460ff1990811690915560008281526020848152604080832080546001600160a01b0319169055908290529081902080549092169091555163ad0b27fb60e01b8152918201819052906001600160a01b037f0000000000000000000000000000000000000000000000000000000000000000169063ad0b27fb90602401600060405180830381600087803b158015610eee57600080fd5b505af1925050508015610eff575060015b506000612710600a8460000154610f169190611431565b610f209190611448565b90506000818460000154610f34919061135a565b6000808655604051919250906001600160a01b0387169083908381818185875af1925050503d8060008114610f85576040519150601f19603f3d011682016040523d82523d6000602084013e610f8a565b606091505b5050905080610fcd5760405162461bcd60e51b815260206004820152600f60248201526e151c985b9cd9995c8819985a5b1959608a1b604482015260640161049b565b856001600160a01b03167fa9e0cdf27a7965d21573ebb808fbcb2c2a1cfd656e1ecf3f82549437b47406778360405161100891815260200190565b60405180910390a2505050505050565b600254600160a01b900460ff166107a357604051638dfc202b60e01b815260040160405180910390fd5b6001600160a01b0381811660009081526003602081815260408084206004808201548254958301805460ff1990811690915587845581885282865284882080546001600160a01b031916905594879052958390208054909416909355905163ad0b27fb60e01b8152918201849052937f0000000000000000000000000000000000000000000000000000000000000000169063ad0b27fb90602401600060405180830381600087803b1580156110f757600080fd5b505af1925050508015611108575060015b508015611181576000846001600160a01b03168260405160006040518083038185875af1925050503d806000811461115c576040519150601f19603f3d011682016040523d82523d6000602084013e611161565b606091505b505090508061117f5750825550600301805460ff1916600117905550565b505b836001600160a01b03167ff779df072f94d207563b1ba8c286814086f1e6bb436a2652e307dccc56ed79e8826040516111bc91815260200190565b60405180910390a250505050565b6000602082840312156111dc57600080fd5b5035919050565b600080604083850312156111f657600080fd5b50508035926020909101359150565b6001600160a01b0381168114610b8757600080fd5b60006020828403121561122c57600080fd5b813561123781611205565b9392505050565b60008083601f84011261125057600080fd5b50813567ffffffffffffffff81111561126857600080fd5b60208301915083602082850101111561128057600080fd5b9250929050565b600080600080600080608087890312156112a057600080fd5b8635955060208701356112b281611205565b9450604087013567ffffffffffffffff808211156112cf57600080fd5b818901915089601f8301126112e357600080fd5b8135818111156112f257600080fd5b8a60208260051b850101111561130757600080fd5b60208301965080955050606089013591508082111561132557600080fd5b5061133289828a0161123e565b979a9699509497509295939492505050565b634e487b7160e01b600052601160045260246000fd5b8181038181111561136d5761136d611344565b92915050565b60006020828403121561138557600080fd5b5051919050565b60208082526012908201527127379030b1ba34bb32903837b9b4ba34b7b760711b604082015260600190565b600080600080600060a086880312156113d057600080fd5b85516113db81611205565b6020870151604088015191965094506113f381611205565b6060870151909350801515811461140957600080fd5b80925050608086015190509295509295909350565b8082018082111561136d5761136d611344565b808202811582820484141761136d5761136d611344565b60008261146557634e487b7160e01b600052601260045260246000fd5b50049056fea2646970667358221220126a8a091b57ebb15e7985829cfa851d1a0b735ea32fabaa688197f026e5cd0664736f6c63430008180033",
  "devdoc": {
    "errors": {
      "EnforcedPause()": [
        {
          "details": "The operation failed because the contract is paused."
        }
      ],
      "ExpectedPause()": [
        {
          "details": "The operation failed because the contract is not paused."
        }
      ],
      "OwnableInvalidOwner(address)": [
        {
          "details": "The owner is not a valid owner account. (eg. `address(0)`)"
        }
      ],
      "OwnableUnauthorizedAccount(address)": [
        {
          "details": "The caller account is not authorized to perform an operation."
        }
      ],
      "ReentrancyGuardReentrantCall()": [
        {
          "details": "Unauthorized reentrant call."
        }
      ]
    },
    "events": {
      "Paused(address)": {
        "details": "Emitted when the pause is triggered by `account`."
      },
      "Unpaused(address)": {
        "details": "Emitted when the pause is lifted by `account`."
      }
    },
    "kind": "dev",
    "methods": {
      "openPosition(uint256,uint256)": {
        "params": {
          "debt": "The amount of debt being taken on (in wei).",
          "protectionRatio": "The collateral-ratio floor at which the vault                         should intervene, e.g. 150 = 150%."
        }
      },
      "owner()": {
        "details": "Returns the address of the current owner."
      },
      "paused()": {
        "details": "Returns true if the contract is paused, and false otherwise."
      },
      "renounceOwnership()": {
        "details": "Leaves the contract without owner. It will not be possible to call `onlyOwner` functions. Can only be called by the current owner. NOTE: Renouncing ownership will leave the contract without an owner, thereby disabling any functionality that is only available to the owner."
      },
      "transferOwnership(address)": {
        "details": "Transfers ownership of the contract to a new account (`newOwner`). Can only be called by the current owner."
      }
    },
    "version": 1
  },
  "userdoc": {
    "kind": "user",
    "methods": {
      "closePosition()": {
        "notice": "Close a position, cancel the Reactivity subscription, and         return collateral minus the protocol fee."
      },
      "openPosition(uint256,uint256)": {
        "notice": "Open a leveraged position and register a Reactivity subscription         that watches for price drops."
      },
      "setPriceOracle(address)": {
        "notice": "Update the oracle address that subscriptions filter on."
      },
      "topUpCollateral()": {
        "notice": "Add collateral to an existing position to improve its ratio."
      },
      "topUpSubscription()": {
        "notice": "Fund the Reactivity subscription so it stays active.         A low-balance warning fires when the remaining balance drops         below 2× the minimum — giving the user time to react before         protection goes dark."
      }
    },
    "version": 1
  },
  "storageLayout": {
    "storage": [
      {
        "astId": 1740,
        "contract": "contracts/REFLEXVault.sol:REFLEXVault",
        "label": "subscriptionIds",
        "offset": 0,
        "slot": "0",
        "type": "t_mapping(t_uint256,t_bool)"
      },
      {
        "astId": 296,
        "contract": "contracts/REFLEXVault.sol:REFLEXVault",
        "label": "_status",
        "offset": 0,
        "slot": "1",
        "type": "t_uint256"
      },
      {
        "astId": 8,
        "contract": "contracts/REFLEXVault.sol:REFLEXVault",
        "label": "_owner",
        "offset": 0,
        "slot": "2",
        "type": "t_address"
      },
      {
        "astId": 186,
        "contract": "contracts/REFLEXVault.sol:REFLEXVault",
        "label": "_paused",
        "offset": 20,
        "slot": "2",
        "type": "t_bool"
      },
      {
        "astId": 1130,
        "contract": "contracts/REFLEXVault.sol:REFLEXVault",
        "label": "positions",
        "offset": 0,
        "slot": "3",
        "type": "t_mapping(t_address,t_struct(Position)1125_storage)"
      },
      {
        "astId": 1134,
        "contract": "contracts/REFLEXVault.sol:REFLEXVault",
        "label": "subIdToUser",
        "offset": 0,
        "slot": "4",
        "type": "t_mapping(t_uint256,t_address)"
      },
      {
        "astId": 1136,
        "contract": "contracts/REFLEXVault.sol:REFLEXVault",
        "label": "priceOracle",
        "offset": 0,
        "slot": "5",
        "type": "t_address"
      },
      {
        "astId": 1138,
        "contract": "contracts/REFLEXVault.sol:REFLEXVault",
        "label": "priceUpdateTopic",
        "offset": 0,
        "slot": "6",
        "type": "t_bytes32"
      }
    ],
    "types": {
      "t_address": {
        "encoding": "inplace",
        "label": "address",
        "numberOfBytes": "20"
      },
      "t_bool": {
        "encoding": "inplace",
        "label": "bool",
        "numberOfBytes": "1"
      },
      "t_bytes32": {
        "encoding": "inplace",
        "label": "bytes32",
        "numberOfBytes": "32"
      },
      "t_mapping(t_address,t_struct(Position)1125_storage)": {
        "encoding": "mapping",
        "key": "t_address",
        "label": "mapping(address => struct REFLEXVault.Position)",
        "numberOfBytes": "32",
        "value": "t_struct(Position)1125_storage"
      },
      "t_mapping(t_uint256,t_address)": {
        "encoding": "mapping",
        "key": "t_uint256",
        "label": "mapping(uint256 => address)",
        "numberOfBytes": "32",
        "value": "t_address"
      },
      "t_mapping(t_uint256,t_bool)": {
        "encoding": "mapping",
        "key": "t_uint256",
        "label": "mapping(uint256 => bool)",
        "numberOfBytes": "32",
        "value": "t_bool"
      },
      "t_struct(Position)1125_storage": {
        "encoding": "inplace",
        "label": "struct REFLEXVault.Position",
        "members": [
          {
            "astId": 1114,
            "contract": "contracts/REFLEXVault.sol:REFLEXVault",
            "label": "collateral",
            "offset": 0,
            "slot": "0",
            "type": "t_uint256"
          },
          {
            "astId": 1116,
            "contract": "contracts/REFLEXVault.sol:REFLEXVault",
            "label": "debt",
            "offset": 0,
            "slot": "1",
            "type": "t_uint256"
          },
          {
            "astId": 1118,
            "contract": "contracts/REFLEXVault.sol:REFLEXVault",
            "label": "openedAt",
            "offset": 0,
            "slot": "2",
            "type": "t_uint256"
          },
          {
            "astId": 1120,
            "contract": "contracts/REFLEXVault.sol:REFLEXVault",
            "label": "active",
            "offset": 0,
            "slot": "3",
            "type": "t_bool"
          },
          {
            "astId": 1122,
            "contract": "contracts/REFLEXVault.sol:REFLEXVault",
            "label": "subscriptionId",
            "offset": 0,
            "slot": "4",
            "type": "t_uint256"
          },
          {
            "astId": 1124,
            "contract": "contracts/REFLEXVault.sol:REFLEXVault",
            "label": "protectionRatio",
            "offset": 0,
            "slot": "5",
            "type": "t_uint256"
          }
        ],
        "numberOfBytes": "192"
      },
      "t_uint256": {
        "encoding": "inplace",
        "label": "uint256",
        "numberOfBytes": "32"
      }
    }
  }
}